:1000000002126702002243BB3075BAC075BF027589
:10001000BE1675BD0475BC2A02113D02002A438D2F
:10002000802232020032538D7F2232020036438D0D
:1000300020223202003A75C000323202003E3232D3
:1000400032323202003F3232323232020C75100844
:0600500004020102100091
:03005B0002004060
:0300630002004157
:10006B0002091775B28875B4F943AA0243B201228B
:03007B00020EEB87
:0300830002004236
:03008B000200462A
:0300930002004721
:10009B00020048780D76000876C8C28A43BB8022DE
:0300AB0002004907
:1000B30002004A7821E6782DF61460431470022179
:1000C3007B2402600241A7E47818F6780AE654FB21
:1000D300F6780BE654F7F67817E6701C780AE654C0
:1000E300F7F6783EE6FFC31330E00D780BE654F7DE
:1000F300F6781C760512113D783EE654FDF622781B
:100103000AE6C31320E00241A77839E6600241A75B
:10011300780BE630E00D783EE6FFC31330E0024192
:10012300A721D3780BE6C31330E0077830E66002EB
:1001330021FE780BE6131313541F30E00241A77816
:100143000AE64404F6783EE6C31330E00241A7789A
:100153003EE64402F6780AE6FF131313541F30E019
:1001630006E654F7F641A1781C760512113DD29D9F
:10017300783EE64410F641A1780AE6C31330E00F57
:100183007839E6700A780AE61313543F30E0307882
:100193000AE6C31330E00241A7783EE6C31330E01A
:1001A3000241A77818E606D39432500241A7783E5D
:1001B300E64402F67817E66401F67808761E22789C
:1001C3000BE630E029783EE6FFC31330E00241A797
:1001D300783EE64402F6780BE654FEF6780AE654D7
:1001E300F7F6E654FBF612113D781C760322780BE2
:1001F300E6C31330E0287830E66023783EE6440215
:10020300F6780BE64401F6E654FDF6E47830F6782A
:1002130025F6782BF608F6781C7605D29D22780B06
:10022300E6131313541F20E07B7817E66401703A3A
:10023300783EE6C31320E06C783EE64402F6780A83
:10024300E6FF1313135401FDEF54F7FFED6401545C
:1002530001FE33333354F84FF6783EE64410F67814
:100263001C760512113DD29D8034780AE64408F6C7
:10027300783EE6C31320E02C783EE64402F6780A83
:10028300E6FF1313543F30E006E654FBF6800F7885
:100293001C760512113DD29D783EE64410F6780A8D
:1002A300E654EFF622781CE670057839E6601BE425
:1002B300781EF67828F608F67813F67816F6783767
:1002C300F67835F608F6783AF622781EE6C39406F1
:1002D30050257F0212111F1210349000D5EEF0A3A7
:1002E300EFF0781EE625E024ACF582E43400F583D4
:1002F300EEF0A3EFF00622781EE664066002817931
:10030300F67B017A0079AC1208009000D5EEF0A3D9
:10031300EFF09000D5E0FEA3E0FF7810E625E0249F
:1003230011F582E43400F583EEF0A3EFF07829EFC2
:1003330026F618EE36F6781006E6D3940F500281AF
:1003430079E4F67B017A0079117D10FC120A16908C
:100353000021E0FEA3E0FF7814A60608A607780BA9
:10036300E61313543F20E00281277826E6640460F5
:10037300257833E625E02495F582E43412F583E409
:1003830093FE740193781FA60608F6780BE630E017
:100393003690129F80237833E625E024A1F582E48A
:1003A3003412F583E493FE740193781FA60608F6CE
:1003B300780BE630E0119012ABE493FE740193FFE7
:1003C300781FA60608A607783AE6FFD3940A4034B6
:1003D3007814E6FC08E6FDD3783696EC18964005CB
:1003E300A60408A605D3ED9449EC9400401678368C
:1003F300E624B7FB18E634FFFAC3ED9BEC9A5004EE
:1004030078397601EFD394284015783A7632791506
:10041300E778209619E7189650167813068011E4AA
:1004230078138006E47813F6783AF67835F608F60A
:100433007837E606D3940740137813E6D394034042
:100443000478397601E47837F67813F67826E6648B
:10045300016023D37815E694DC18E694014005780F
:1004630016068004E47816F67816E6D3940640065A
:10047300E4F67839760122780BE6C31330E00B7883
:1004830030E67006780BE654FDF6780AE6FFC313F0
:1004930030E0117839E6700CD3781BE6947818E6CF
:1004A3009400403C12113DC29D780BE654FEF618B1
:1004B300E654F7F6E654FBF608E654FBF6D3781B4E
:1004C300E6947818E694004006780BE64408F6783C
:1004D3000BE654FDF6E4781AF608F67830F6A1DD5B
:1004E300780AE6FF131313541F20E010E6FF1313DB
:1004F300543F20E00708E620E002A1BC780BE64465
:1005030004F6781CE6B4020712009EE4781CF67821
:100513000BE620E02E7826E67833B4010CE625E0DE
:10052300248BF582E43412800AE625E02481F582E7
:10053300E43412F583E493FE7401937831A606083C
:10054300F680447825E614601504703BE4782BF6B6
:1005530008F6783176020876127825068029C37862
:100563002CE6942C18E69401401DE4F608F6782551
:10057300F6780BE654FEF618E654F7F6E654FBF667
:10058300781C760312113D7831E6FE08E6FF780DFC
:10059300E6FC08E6FDC39FEC9E500A740226F6189B
:1005A300E436F68035D3ED9FEC9E402E780E74FE34
:1005B30026F61874FF36F68021781CE6D3940240A1
:1005C30007760212113D8012781CE6700DC29DF66B
:1005D300780BE654FBF6E654FEF6780DE6FE08E6E5
:1005E3008EBFF5BE229000F8ECF0A3EDF09000F57D
:1005F300EBF0A3EAF0A3E9F09000FFEBF0A3EAF03D
:10060300A3E9F0E49000FDF0A3F09000FAE0FFC34B
:100613009000FEE09F9000FDE09400507A75FE018B
:10062300E4FF9000F5E0FBA3E0FAA3E0F98F827505
:10063300830012116BFEE42FF582E43480F583EE20
:10064300F00FEFB420DC9000FDE0FEA3E0FF90008C
:10065300F9E02FFF9000F8E03EFEEF7805C333CEBC
:1006630033CED8F9FF9000FBEEF0A3EFF09000FB40
:10067300E0FEA3E0F5FCEEF5FBE4F5FA75FDA575E8
:10068300FE030000009000FEE004F06002C10D9044
:1006930000FDE004F0C10D9000F8E0FEA3E0780552
:1006A300C333CE33CED8F9FF9000FBEEF0A3EFF0C7
:1006B3009000F5E0F9A3E0FAA3E09000FFC9F0A3EE
:1006C300EAF0A3E9F09000FDEEF0A3EFF09000FA5A
:1006D300E075F020A4FF9000FCE02FFF9000FBE00A
:1006E30035F0FE9000FDE0FCA3E0FDC39FEC9E50BF
:1006F30033A3E0FBA3E0FAA3E0F9121152FF8D82CA
:100703008C83E4936F60037FFF22900100E475F014
:10071300011211AA9000FEE004F070B19000FDE018
:1007230004F080A97F00229000D5744EF0A37420BA
:10073300F07FC812110EE59020E0109000D6E0047F
:10074300F070169000D5E004F0800E9000D6E024FF
:10075300FFF09000D5E034FFF012002E9000D5E0BA
:10076300FEA3E0FFE4FCFD7B407A9CF9F8C3121280
:1007730025400E9000D6E094649000D5E09400509C
:10078300B5E47833F6780FF67817F67823F67838E9
:10079300F67824F67809E654DFF6780BE654FEF68D
:1007A3007808761EE47817F67826F6E59830E70F92
:1007B300E59830E604E4F6801378267601800DE5AB
:1007C30098782630E6047602800276047826E630AE
:1007D300E104782476017FFE7E01120E9890005585
:1007E300E0B4550DA3E07833F6780FF6A3E078175D
:0C07F300F622120FBDEF7003120D9222CF
:100800009000D7EBF0A3EAF0A3E9F0E49000DBF06E
:10081000FF7EF09000DAF09000DAE0FDC39406501D
:10082000339000D7E0FBA3E0FAA3E0F975F002ED06
:10083000A4F58285F0831211C0FDACF0C39FEC9E3D
:10084000500AAE04AF059000DAE0A3F09000DAE0C1
:1008500004F080C39000D7E0FBA3E0FAA3E0F99096
:1008600000DBE075F002A4F58285F083E4F5F01278
:1008700011F8E4FEFF9000DAF09000DAE0FDC39496
:100880000650339000D7E0FBA3E0FAA3E0F975F03F
:1008900002EDA4F58285F0831211C0FDACF0D39F68
:1008A000EC9E400AAE04AF059000DAE0A3F09000A1
:1008B000DAE004F080C39000D7E0FBA3E0FAA3E005
:1008C000F99000DBE075F002A4F58285F083E4F591
:1008D000F01211F8E4FEFF9000DAF09000DAE0FD8B
:1008E000C3940650269000D7E0FBA3E0FAA3E0F9FA
:1008F00075F002EDA4F58285F0831211C02FFFE59B
:10090000F03EFE9000DAE004F080D0EF7802CEC333
:1009100013CE13D8F9FF22C0E0C083C082C0D075C7
:10092000D000C000C005C006C007783DE64401F60F
:10093000900000E004F0C3940550024105E4F090FB
:1009400000D4E0600214F090000CE004F0C3940ABC
:1009500050024105E4F0783DE64404F6781CE66078
:1009600001167830E66001167808E6600116782CEA
:1009700006E618700106783A06781DE66025780BC1
:10098000E6C31320E01DE61313543F20E01578382A
:10099000E606D3941E4010780BE64402F6783076D3
:1009A00032800478387600900005E004F0C39405A6
:1009B0004053E4F0783DE6FFC4135401FDEF54DFEB
:1009C000FFED64015401C43354E04FF6E64410F6E1
:1009D00090000BE004F0C39402402AE4F0780BE6A8
:1009E0001313543F30E00A781B06E61870010680A6
:1009F00007781A7600087600900010E004F0C3949F
:100A00003C4002E4F0D007D006D005D000D0D0D0D2
:100A100082D083D0E0329000D7ECF0A3EDF0E4A3D5
:100A2000F0A3F09000D7E0FEA3E0FFA3E0FCA3E07A
:100A3000FDC39FEE6480F8EC64809840026104A3DB
:100A4000ECF0A3EDF09000D7E0FEA3E0FF9000DB18
:100A5000E0FCA3E0FDC39FEE6480F8EC6480984066
:100A60000241F2ED25E0FFEC338F82F5831211C0D5
:100A7000FDACF09000DAE025E0FF9000D9E0338F84
:100A800082F5831211C0FFAEF0D39DEE9C405190D1
:100A900000DDEEF0A3EFF09000DCE025E0FF900039
:100AA000DBE0338F82F5831211C0FD9000DAE02580
:100AB000E0FF9000D9E0338F82F583E5F08DF012EE
:100AC00011F89000DDE0FCA3E0FD9000DCE025E003
:100AD000FF9000DBE0338F82F583EC8DF01211F88C
:100AE0009000DCE004F0600241459000DBE004F09F
:100AF00041459000DAE004F0600241239000D9E023
:100B000004F04123227834E624FE601324026002BC
:100B100061B57833E690004E93F590D28E61BB7547
:100B200090107808E660237817E6700F783DE6C4E9
:100B300013540730E07B7590188076783DE6C41337
:100B4000540730E06C75901E8067780AE6C3133056
:100B5000E0037590187839E6B4010543900280519E
:100B6000780BE630E0054390068046780AE6C454E8
:100B70000F20E008780BE6C31330E00D783DE6C4A3
:100B800013540730E003439002780AE6131313541A
:100B90001F20E010E61313543F20E008780BE6C353
:100BA0001330E00D783DE6C413540730E003439062
:100BB00004D28F800612114A1207F5783406E6D364
:100BC00094034002E4F6229000D5EEF0A3EFF0A9E2
:100BD00005E4FDFCE9FFC3ED9FEC9400504C75FE6D
:100BE00001E4FFE42FF582E43480F583E4F00FEFB5
:100BF000B420F09000D6E02DFF9000D5E03CFEEF51
:100C00007805C333CE33CED8F9FF9000D7EEF0A3EA
:100C1000EFF0F5FCEEF5FBE4F5FA75FDA575FE02C7
:100C20000000000DBD00010C80AA9000D5E0FEA3DD
:100C3000E07805C333CE33CED8F9FF9000D7EEF07D
:100C4000A3EFF0AC06FDE975F020A4FF9000D8E01A
:100C50002FFF9000D7E035F0FEC3ED9FEC9E5012C1
:100C60008D828C83E49360037FFF220DBD00010C15
:100C700080D47F0022C0E0C083C082C0D075D00085
:100C8000C006C007900006E5E7F0E0FF900001E035
:100C9000FE2475F582E43400F583EFF0EE1424FDB4
:100CA000501660222404706CEFB4AE0590008A8068
:100CB0000C900001E4F0805C90008AE02FF090003E
:100CC00001E004F0804E900001E4F090008AE06FB3
:100CD000703790000AE04402F0900076E090000245
:100CE000F0900077E0900053F0900078E090000FD3
:100CF000F090008AE4F09000547455F09000D474A1
:100D000002F090000EE4F0800B90008AE4F0900076
:100D1000547449F0D007D006D0D0D082D083D0E030
:100D200032AE04ED7805C333CE33CED8F9FF900050
:100D3000FFEEF0A3EFF0A3EEF0A3EFF09000FEE0E3
:100D400075F020A4FF900100E02FFF9000FFE03538
:100D5000F0FE900101E0FCA3E0FDC39FEC9E50205B
:100D60008D828C83E493121198740129F9E43AFA84
:100D7000900102E004F070C4900101E004F080BC36
:100D80009000FFE0FEA3E0FFC3E99FF9EA9EFEAFFB
:100D90000122783BE6781DF67809E64420F6781DB6
:100DA000E614600E047045783EE654FEF6E47838AA
:100DB000F622783EE620E034780BE620E02E783EFE
:100DC000E64401F6E4781EF67828F608F67813F67D
:100DD0007816F67837F67835F608F6783AF67833F6
:100DE000E6C3940450020622E47833F62253A87F27
:100DF000120FF6120026120F7F12112E12072A125E
:100E0000001E1210C212006E1200061210D612003E
:100E10009E43A880783DE630E0FAE654FEF618E6F8
:100E200014600B04701812047A783C0680E61200F5
:100E30002E1210E91202A8120E44E4783CF6E4786F
:100E40003CF680D0790FE778336670087923E7782D
:100E5000176660437833E6FF780FF67817E6FE787A
:100E600023F6783EE654EFF690008C7455F0A3EF2D
:100E7000F0A3EEF07FFE7E011210FC7819A60700A9
:100E800000007FFE7E01120F3A7819A607000000CD
:100E90007FFE7E01120E98229000D7EEF0A3EFF0B5
:100EA0007E007F207D007B017A0079D912123B9071
:100EB00000D7E05401FEA3E0FF7B017A0079D9FD61
:100EC000AC069000FE7401F0120D21E4FF74D92FDE
:100ED000F582E43400F583E0FE74552FF582E434A6
:100EE00000F583EEF00FEFB420E322C0E0C0F0C0C5
:100EF00083C082C0D075D000C000C001C002C00352
:100F0000C004C005C006C0077834E630E00575C5EA
:100F10000F800375C51F75C43F43C301120B05D075
:100F200007D006D005D004D003D002D001D000D025
:100F3000D0D082D083D0F0D0E03253A87FEE5401DD
:100F4000FEE4FD748C2DF582E43400F583E0FC743E
:100F5000D52DF582E43400F583ECF00DEDB420E3FB
:100F60007B017A0079D5AD07AC069000FA7401F0E8
:100F70001205E843A880EF7F00B4FF027F012275CD
:100F8000A1E3E4F5ACF591F5DEF58075B1C775AD7B
:100F90003875923875DF08F58875B9FFF5AEF593A9
:100FA000F59075C13D75AFC27594C2F59875D3388B
:100FB000F5D575D408F5D675D701F5D822782FE682
:100FC0007002760F75B9EFE4F5AE759310FF000F60
:100FD000EFB432FAE4FFE59020E4010F75B9FFE4C5
:100FE000F5AEF593783BE66F6006A607782F760F8F
:0F0FF000782F16E6FF22758E01758DC202002E36
:10100000C0E0C083C082C0D0900003E02480F5829D
:10101000E43400F583E0F5E7900003E004F0E0B489
:101020000A09E4F0900001F053E33FD0D0D082D021
:1010300083D0E0327F407E00E59C20E409EF1F7002
:10104000011E144E70F2AF9FEFFEAD9EEDFF7802D1
:10105000CEC313CE13D8F9FF227811E67002760FB3
:10106000AF88EFC4540F54036403FF7821E66F6028
:1010700006A6077811760F781116E6FF227822E689
:10108000782EF6780A6005E64402F622E654FDF66C
:10109000E47839F6780AE654EFF6780BE654FEF673
:1010A000227812E67002760FE4FFE58820E3010F54
:1010B0007822E66F6006A6077812760F781216E699
:1010C000FF22759C80759D07E4F5F6F5F7F5F2F5BE
:1010D000F3F5F4F5F522E4F5C375C2C075C51F75C7
:1010E000C43F43AA0843C38022121059EF70031271
:1010F00000B61210A1EF700312107D22EE5401FE13
:101100007D01120BC7EF7F00B4FF027F0122EF6069
:101110000DE4FE0000000EEEB496F81F80F022EF02
:10112000540FFFE59C54F04FF59C439C402275C83A
:1011300028758B09E58B30E7FBE4F58A22780D767C
:10114000000876C8C28A53BB7F22C28EC28F7590B8
:101150000022BB010689828A83E0225002E722BB7B
:10116000FE02E32289828A83E49322BB010CE5829A
:1011700029F582E5833AF583E0225006E92582F8D5
:10118000E622BBFE06E92582F8E222E58229F58205
:10119000E5833AF583E49322BB010689828A83F0D2
:1011A000225002F722BBFE01F322C5F0F8A3E0288B
:1011B000F0C5F0F8E582158270021583E038F02260
:1011C000BB0110E58229F582E5833AF583E0F5F06D
:1011D000A3E0225009E92582F886F008E622BBFE4A
:1011E0000AE92582F8E2F5F008E222E5832AF58390
:1011F000E993F5F0A3E99322F8BB0111E58229F503
:1012000082E5833AF583E8F0E5F0A3F0225009E99E
:101210002582C8F608A6F022BBFE09E92582C8F29D
:10122000E5F008F222EB9FF5F0EA9E42F0E99D42DC
:10123000F0EC6480C864809845F022EF4E6012EFB5
:1012400060010EEDBB010B89828A83F0A3DFFCDE17
:10125000FA2289F05007F709DFFCA9F022BBFEFC57
:10126000F309DFFCA9F02278FFE4F6D8FD90000036
:101270007FFF7E02E4F0A3DFFCDEFA75813E020D03
:10128000ED01A801DD0212027C02B10212027C0211
:10129000E6035003BA0056006400730090009F00FC
:0D12A00073006400730082009F00AD0082A7
:00000001FF
