:100000000210B002002243BB3075BAC075BF027542
:10001000BE1675BD0475BC2A020F6C02002A438D02
:10002000802232020032538D7F2232020036438D0D
:1000300020223202003A75C000323202003E3232D3
:1000400032323202003F3232323232020B39100881
:06005000040201020E2F64
:03005B0002004060
:0300630002004157
:10006B0002080075B28875B4F943AA0243B20122A3
:03007B00020CE391
:0300830002004236
:03008B000200462A
:0300930002004721
:0D009B00020048120DF6EF7003120D7722DF
:0300AB0002004907
:1000B30002004A781EE6782BF614604B1470022176
:1000C300832402600241B27834E6B40208E4F6788D
:1000D3000AE654F7F6E47815F6780AE654FBF67860
:1000E30014E6701C780AE654F7F67838E6FFC31373
:1000F30030E00D780BE654F7F6781B7605120F6C9B
:100103007838E654FDF622780AE6C31320E002416C
:10011300B27834E6600241B2780BE630E00D78380D
:10012300E6FFC31330E00241B221DB780BE6C313D1
:1001330030E007782EE660024106780BE6131313CE
:10014300541F30E00241B2780AE64404F67838E6F8
:10015300C31330E00241B27838E64402F6780AE687
:10016300FF131313541F30E006E654F7F641AC783F
:100173001B7605120F6CD29D7838E64410F641AC1D
:10018300780AE6C31330E00F7834E6700A780AE69B
:100193001313543F30E030780AE6C31330E00241D2
:1001A300B27838E6C31330E00241B27815E606D3DD
:1001B3009432500241B27838E64402F67814E66489
:1001C30001F67808761E22780BE630E0297838E6C7
:1001D300FFC31330E00241B27838E64402F6780BED
:1001E300E654FEF6780AE654F7F6E654FBF6120FE9
:1001F3006C781B760322780BE6C31330E02B782E42
:10020300E660267838E64402F6780BE64401F6E623
:1002130054FDF6E4782EF67823F67821F67827F65F
:1002230008F6781B7605D29D22780BE61313135438
:100233001F20E07B7814E66401703A7838E6C31334
:1002430020E06C7838E64402F6780AE6FF131313CD
:100253005401FDEF54F7FFED64015401FE333333D2
:1002630054F84FF67838E64410F6781B7605120FEB
:100273006CD29D8034780AE64408F67838E6C313D6
:1002830020E02C7838E64402F6780AE6FF1313548C
:100293003F30E006E654FBF6800F781B7605120F1D
:1002A3006CD29D7838E64410F6780AE654EFF622CD
:1002B300780BE6C31330E00B782EE67006780BE676
:1002C30054FDF6780AE6FFC31330E0117834E67084
:1002D3000CD37818E6942C18E69401403E120F6C68
:1002E300C29D780BE654FEF618E654F7F6E654FB87
:1002F300F608E654FBF6D37818E6942C18E6940136
:100303004006780BE64408F6780BE654FDF6E478ED
:1003130017F608F6782EF6780B8122780AE6FF1393
:100323001313541F20E010E6FF1313543F20E0077C
:1003330008E620E0028105780BE64404F6781BE624
:10034300B40207120F5DE4781BF6780BE620E02E6B
:100353007824E6783130E00CE625E024D4F582E415
:100363003410800AE625E024CAF582E43410F583CC
:10037300E493FE740193782FA60608F6804778234A
:10038300E614601504703EE47827F608F6782F76B5
:100393000208767C782306802CC37828E6942C18F0
:1003A300E694014020E4F608F67823F67821F678FF
:1003B3000BE654FEF618E654F7F6E654FBF6781B04
:1003C3007603120F6C782FE6FE08E6FFC390001247
:1003D300E09F900011E09E500EA3E02402F09000F5
:1003E30011E03400F0803CD3900012E09F900011A4
:1003F300E09E402FA3E024FEF0900011E034FFF0D4
:100403008021781BE6D3940240077602120F6C809A
:1004130012781BE6700DC29DF6780BE654FBF6E6E8
:1004230054FEF6900011E0F5BFA3E0F5BE22900064
:10043300B8ECF0A3EDF09000B5EBF0A3EAF0A3E97C
:10044300F09000BFEBF0A3EAF0A3E9F0E49000BD65
:10045300F0A3F09000BAE0FFC39000BEE09F9000CD
:10046300BDE09400507A75FE01E4FF9000B5E0FB17
:10047300A3E0FAA3E0F98F82758300120FB4FEE4C0
:100483002FF582E43480F583EEF00FEFB420DC9097
:1004930000BDE0FEA3E0FF9000B9E02FFF9000B89D
:1004A300E03EFEEF7805C333CE33CED8F9FF90009C
:1004B300BBEEF0A3EFF09000BBE0FEA3E0F5FCEE93
:1004C300F5FBE4F5FA75FDA575FE03000000900049
:1004D300BEE004F0600281569000BDE004F0815656
:1004E3009000B8E0FEA3E07805C333CE33CED8F94D
:1004F300FF9000BBEEF0A3EFF09000B5E0F9A3E0AE
:10050300FAA3E09000BFC9F0A3EAF0A3E9F09000DA
:10051300BDEEF0A3EFF09000BAE075F020A4FF90D9
:1005230000BCE02FFF9000BBE035F0FE9000BDE083
:10053300FCA3E0FDC39FEC9E5033A3E0FBA3E0FAD2
:10054300A3E0F9120F9BFF8D828C83E4936F60030A
:100553007FFF229000C0E475F001120FF39000BEFC
:10056300E004F070B19000BDE004F080A97F0022A8
:10057300900095EBF0A3EAF0A3E9F0E4900099F082
:10058300FF7EF0900098F0900098E0FDC394065031
:1005930033900095E0FBA3E0FAA3E0F975F002EDD8
:1005A300A4F58285F083121009FDACF0C39FEC9E85
:1005B300500AAE04AF05900098E0A3F0900098E0D5
:1005C30004F080C3900095E0FBA3E0FAA3E0F99068
:1005D3000099E075F002A4F58285F083E4F5F0124A
:1005E3001041E4FEFF900098F0900098E0FDC39462
:1005F300065033900095E0FBA3E0FAA3E0F975F011
:1006030002EDA4F58285F083121009FDACF0D39FAF
:10061300EC9E400AAE04AF05900098E0A3F0900072
:1006230098E004F080C3900095E0FBA3E0FAA3E018
:10063300F9900099E075F002A4F58285F083E4F562
:10064300F0121041E4FEFF900098F0900098E0FD56
:10065300C394065026900095E0FBA3E0FAA3E0F9CB
:1006630075F002EDA4F58285F0831210092FFFE5E2
:10067300F03EFE900098E004F080D0EF7802CEC305
:1006830013CE13D8F9FF22781BE670057834E660A1
:1006930010E4781DF67825F608F67810F67813F648
:1006A30022781DE6C3940650367F02120F4E120EB7
:1006B30063781DE6FD25E0246CF582E43400F583C0
:1006C300EEF0A3EFF0EDB405127B017A00796C1222
:1006D30005737826EF26F618EE36F6781D0622788F
:1006E3001DE664066002E189F6780D06E6D3941FE1
:1006F3005002E1897825E6FE08E67805CEC313CEDD
:1007030013D8F9FF7825EEF608EFF67811A6060858
:10071300F6E47825F608F6780DF6780AE61313540E
:100723003F20E009E6131313541F30E01CC3781273
:10073300E6943718E6940050107822E6700B780B95
:10074300E620E0057810068004E47810F67810E6D9
:10075300D39407400E78347602E47810F6780AE6EC
:100763004410F6D37812E6947218E69401400578A3
:1007730013068004E47813F67813E6D39403400653
:10078300E4F67834760122AE04ED7805C333CE3334
:10079300CED8F9FF9000BFEEF0A3EFF0A3EEF0A3E5
:1007A300EFF09000BEE075F020A4FF9000C0E02FB2
:1007B300FF9000BFE035F0FE9000C1E0FCA3E0FD38
:1007C300C39FEC9E50208D828C83E493120FE174BF
:1007D3000129F9E43AFA9000C2E004F070C49000F1
:1007E300C1E004F080BC9000BFE0FEA3E0FFC3E9DA
:0807F3009FF9EA9EFEAF01220E
:10080000C0E0C083C082C0D075D000C000C005C0A9
:1008100006C0077837E64401F6900000E004F0C314
:100820009405500201EBE4F0900094E0600214F0B3
:1008300090000CE004F0C3940A500201EBE4F0785D
:1008400037E64404F6781BE6600116782EE6600170
:10085000167808E6600116782806E6187001067812
:100860001CE66025780BE6C31320E01DE613135445
:100870003F20E0157833E606D3941E4010780BE64F
:100880004402F6782E7632800478337600900005A4
:10089000E004F0C394054053E4F07837E6FFC41356
:1008A0005401FDEF54DFFFED64015401C43354E003
:1008B0004FF6E64410F690000BE004F0C3940240BB
:1008C0002AE4F0780BE61313543F30E00A78180658
:1008D000E618700106800778177600087600900009
:1008E00010E004F0C3943C4002E4F0D007D006D0FE
:1008F00005D000D0D0D082D083D0E0329000957463
:100900004EF0A37420F07FC8120F3DE59020E01058
:10091000900096E004F07016900095E004F0800ED0
:10092000900096E024FFF0900095E034FFF0120074
:100930002E900095E0FEA3E0FFE4FCFD7B407A9C56
:10094000F9F8C312106E400E900096E09464900087
:1009500095E0940050B5E47831F6780CF67814F60A
:100960007820F67833F67822F67809E654DFF678C0
:100970000BE654FEF67808761EE47814F67824F632
:10098000E59830E711E59830E604E4F68015782420
:10099000E64401F6800DE598782430E6047602807E
:1009A0000276047824E630E104782276017FFE7E28
:1009B00001120C90900015E0B4550DA3E07831F6CB
:1009C000780CF6A3E07814F6227832E624FE601361
:1009D0002402600241797831E690004E93F590D27E
:1009E0008E417F7590107808E660237814E6700FCA
:1009F0007837E6C413540730E07B7590188076781A
:100A000037E6C413540730E06C75901E8067780A8F
:100A1000E6C31330E0037590187834E6B40105435B
:100A200090028051780BE630E005439006804678CE
:100A30000AE6C4540F20E008780BE6C31330E00D3B
:100A40007837E6C413540730E003439002780AE68F
:100A5000131313541F20E010E61313543F20E00833
:100A6000780BE6C31330E00D7837E6C41354073033
:100A7000E003439004D28F8006120F9312009E78F9
:100A80003206E6D394034002E4F622900095EEF09D
:100A9000A3EFF0A905E4FDFCE9FFC3ED9FEC940092
:100AA000504C75FE01E4FFE42FF582E43480F583B9
:100AB000E4F00FEFB420F0900096E02DFF90009549
:100AC000E03CFEEF7805C333CE33CED8F9FF90007B
:100AD00097EEF0A3EFF0F5FCEEF5FBE4F5FA75FD0B
:100AE000A575FE020000000DBD00010C80AA90005B
:100AF00095E0FEA3E07805C333CE33CED8F9FF905E
:100B00000097EEF0A3EFF0AC06FDE975F020A4FF2E
:100B1000900098E02FFF900097E035F0FEC3ED9F26
:100B2000EC9E50128D828C83E49360037FFF220D34
:100B3000BD00010C80D47F0022C0E0C083C082C011
:100B4000D075D000C006C007900006E5E7F0E0FFD2
:100B5000900001E0FE2435F582E43400F583EFF0E7
:100B6000EE1424FD501660222404706CEFB4AE0520
:100B700090004A800C900001E4F0805C90004AE014
:100B80002FF0900001E004F0804E900001E4F0901E
:100B9000004AE06F703790000AE04402F09000369F
:100BA000E0900002F0900037E0900013F0900038E1
:100BB000E090000FF090004AE4F09000147455F0BB
:100BC0009000947402F090000EE4F0800B90004AC4
:100BD000E4F09000147449F0D007D006D0D0D08251
:100BE000D083D0E03253A87F120F8A120026120D54
:100BF000B8120F7B1208FC12001E120EF112006ECA
:100C0000120006120F05120F5D43A8807837E630F8
:100C1000E0FAE654FEF618E614600B0470181202AF
:100C2000B378360680E612002E120F1812068A12CA
:100C30000C3CE47836F6E47836F680D0790CE77828
:100C4000316670087920E778146660437831E6FFF2
:100C5000780CF67814E6FE7820F67838E654EFF64D
:100C600090004C7455F0A3EFF0A3EEF07FFE7E01F0
:100C7000120F2B7816A6070000007FFE7E01120DD2
:100C8000327816A6070000007FFE7E01120C90222B
:100C9000900097EEF0A3EFF07E007F207D007B01B7
:100CA0007A007999121084900097E05401FEA3E035
:100CB000FF7B017A007999FDAC069000BE7401F0CB
:100CC00012078AE4FF74992FF582E43400F583E07B
:100CD000FE74152FF582E43400F583EEF00FEFB4C7
:100CE00020E322C0E0C0F0C083C082C0D075D00035
:100CF000C000C001C002C003C004C005C006C007D8
:100D00007832E630E00575C50F800375C51F75C4E0
:100D10003F43C3011209C9D007D006D005D004D083
:100D200003D002D001D000D0D0D082D083D0F0D078
:100D3000E03253A87FEE5401FEE4FD744C2DF582A1
:100D4000E43400F583E0FC74952DF582E43400F57D
:100D500083ECF00DEDB420E37B017A007995AD07CB
:100D6000AC069000BA7401F012043143A880EF7F02
:100D700000B4FF027F01227835E6781CF67809E698
:100D80004420F6781CE614600E04702B7838E65484
:100D9000FEF6E47833F6227838E620E01A780BE69F
:100DA00020E0147838E64401F67831E6C394045024
:100DB000020622E47831F62275A1E3E4F5ACF59160
:100DC000F5DEF58075B1C775AD3875923875DF08F9
:100DD000F58875B9FFF5AEF593F59075C13D75AF22
:100DE000C27594C2F59875D338F5D575D408F5D683
:100DF00075D701F5D822782DE67002760F75B9EF18
:100E0000E4F5AE759310FF000FEFB432FAE4FFE59E
:100E10009020E4010F75B9FFE4F5AEF5937835E65F
:100E20006F6006A607782D760F782D16E6FF22C094
:100E3000E0C083C082C0D0900003E02440F582E48B
:100E40003400F583E0F5E7900003E004F0E0B40A35
:100E500009E4F0900001F053E33FD0D0D082D0837A
:100E6000D0E0327F407E00E59C20E409EF1F700156
:100E70001E144E70F2AF9FEFFEAD9EEDFF7802CED6
:100E8000C313CE13D8F9FF22780EE67002760FAFA7
:100E900088EFC4540F54036403FF781EE66F6006A6
:100EA000A607780E760F780E16E6FF22781FE678F2
:100EB0002CF6780A6005E64402F622E654FDF6E4D4
:100EC0007834F6780AE654EFF6780BE654FEF6220C
:100ED000780FE67002760FE4FFE58820E3010F78D3
:100EE0001FE66F6006A607780F760F780F16E6FFED
:100EF00022759C80759D07E4F5F6F5F7F5F2F5F39C
:100F0000F5F4F5F522E4F5C375C2C075C51F75C4C7
:100F10003F43AA0843C38022120E88EF70031200D9
:100F2000B6120ED0EF7003120EAC22EE5401FE7D0D
:100F300001120A8BEF7F00B4FF027F0122EF600DE8
:100F4000E4FE0000000EEEB496F81F80F022EF548D
:100F50000FFFE59C54F04FF59C439C4022900011FC
:100F6000E4F0A374C8F0C28A43BB8022900011E46D
:100F7000F0A374C8F0C28A53BB7F2275C828758B52
:100F800009E58B30E7FBE4F58A22758E01758DC289
:100F900002002EC28EC28F75900022BB010689828C
:100FA0008A83E0225002E722BBFE02E32289828A82
:100FB00083E49322BB010CE58229F582E5833AF5AF
:100FC00083E0225006E92582F8E622BBFE06E925E9
:100FD00082F8E222E58229F582E5833AF583E493FB
:100FE00022BB010689828A83F0225002F722BBFECF
:100FF00001F322C5F0F8A3E028F0C5F0F8E582156A
:101000008270021583E038F022BB0110E58229F5D9
:1010100082E5833AF583E0F5F0A3E0225009E92563
:1010200082F886F008E622BBFE0AE92582F8E2F59E
:10103000F008E222E5832AF583E993F5F0A3E9932A
:1010400022F8BB0111E58229F582E5833AF583E8B0
:10105000F0E5F0A3F0225009E92582C8F608A6F0D1
:1010600022BBFE09E92582C8F2E5F008F222EB9FD7
:10107000F5F0EA9E42F0E99D42F0EC6480C864809D
:101080009845F022EF4E6012EF60010EEDBB010BB0
:1010900089828A83F0A3DFFCDEFA2289F05007F709
:1010A00009DFFCA9F022BBFEFCF309DFFCA9F0225A
:1010B00078FFE4F6D8FD9000007FFF7E02E4F0A305
:1010C000DFFCDEFA758138020BE501A80212027C12
:0E10D00002E603500212027C02E6035003BA4D
:00000001FF
